{
  "_format": "hh-sol-artifact-1",
  "contractName": "Booking",
  "sourceName": "contracts/Booking.sol",
  "abi": [
    {
      "anonymous": false,
      "inputs": [
        {
          "indexed": false,
          "internalType": "uint256",
          "name": "id",
          "type": "uint256"
        },
        {
          "indexed": false,
          "internalType": "string",
          "name": "user",
          "type": "string"
        },
        {
          "indexed": false,
          "internalType": "string",
          "name": "station",
          "type": "string"
        },
        {
          "indexed": false,
          "internalType": "uint256",
          "name": "startTime",
          "type": "uint256"
        },
        {
          "indexed": false,
          "internalType": "uint256",
          "name": "endTime",
          "type": "uint256"
        }
      ],
      "name": "BookingCreated",
      "type": "event"
    },
    {
      "inputs": [
        {
          "internalType": "string",
          "name": "_user",
          "type": "string"
        },
        {
          "internalType": "string",
          "name": "_station",
          "type": "string"
        },
        {
          "internalType": "uint256",
          "name": "_startTime",
          "type": "uint256"
        },
        {
          "internalType": "uint256",
          "name": "_endTime",
          "type": "uint256"
        }
      ],
      "name": "addBooking",
      "outputs": [
        {
          "internalType": "uint256",
          "name": "",
          "type": "uint256"
        }
      ],
      "stateMutability": "nonpayable",
      "type": "function"
    },
    {
      "inputs": [
        {
          "internalType": "uint256",
          "name": "",
          "type": "uint256"
        }
      ],
      "name": "bookings",
      "outputs": [
        {
          "internalType": "uint256",
          "name": "id",
          "type": "uint256"
        },
        {
          "internalType": "string",
          "name": "user",
          "type": "string"
        },
        {
          "internalType": "string",
          "name": "station",
          "type": "string"
        },
        {
          "internalType": "uint256",
          "name": "startTime",
          "type": "uint256"
        },
        {
          "internalType": "uint256",
          "name": "endTime",
          "type": "uint256"
        }
      ],
      "stateMutability": "view",
      "type": "function"
    },
    {
      "inputs": [],
      "name": "nextBookingId",
      "outputs": [
        {
          "internalType": "uint256",
          "name": "",
          "type": "uint256"
        }
      ],
      "stateMutability": "view",
      "type": "function"
    }
  ],
  "bytecode": "0x6080604052348015600f57600080fd5b506109f28061001f6000396000f3fe608060405234801561001057600080fd5b50600436106100415760003560e01c80631dab301e1461004657806326f20c791461007a5780634086ba2e14610098575b600080fd5b610060600480360381019061005b919061034b565b6100c8565b604051610071959493929190610417565b60405180910390f35b61008261020e565b60405161008f9190610478565b60405180910390f35b6100b260048036038101906100ad91906105c8565b610214565b6040516100bf9190610478565b60405180910390f35b60006020528060005260406000206000915090508060000154908060010180546100f190610696565b80601f016020809104026020016040519081016040528092919081815260200182805461011d90610696565b801561016a5780601f1061013f5761010080835404028352916020019161016a565b820191906000526020600020905b81548152906001019060200180831161014d57829003601f168201915b50505050509080600201805461017f90610696565b80601f01602080910402602001604051908101604052809291908181526020018280546101ab90610696565b80156101f85780601f106101cd576101008083540402835291602001916101f8565b820191906000526020600020905b8154815290600101906020018083116101db57829003601f168201915b5050505050908060030154908060040154905085565b60015481565b6000806001600081548092919061022a906106f6565b9190505590506040518060a001604052808281526020018781526020018681526020018581526020018481525060008083815260200190815260200160002060008201518160000155602082015181600101908161028891906108ea565b50604082015181600201908161029e91906108ea565b5060608201518160030155608082015181600401559050507f47082d07c458e7aa101fe6a021dbcb7689be17201e2f0d99f3535653f387c2e181878787876040516102ed959493929190610417565b60405180910390a180915050949350505050565b6000604051905090565b600080fd5b600080fd5b6000819050919050565b61032881610315565b811461033357600080fd5b50565b6000813590506103458161031f565b92915050565b6000602082840312156103615761036061030b565b5b600061036f84828501610336565b91505092915050565b61038181610315565b82525050565b600081519050919050565b600082825260208201905092915050565b60005b838110156103c15780820151818401526020810190506103a6565b60008484015250505050565b6000601f19601f8301169050919050565b60006103e982610387565b6103f38185610392565b93506104038185602086016103a3565b61040c816103cd565b840191505092915050565b600060a08201905061042c6000830188610378565b818103602083015261043e81876103de565b9050818103604083015261045281866103de565b90506104616060830185610378565b61046e6080830184610378565b9695505050505050565b600060208201905061048d6000830184610378565b92915050565b600080fd5b600080fd5b7f4e487b7100000000000000000000000000000000000000000000000000000000600052604160045260246000fd5b6104d5826103cd565b810181811067ffffffffffffffff821117156104f4576104f361049d565b5b80604052505050565b6000610507610301565b905061051382826104cc565b919050565b600067ffffffffffffffff8211156105335761053261049d565b5b61053c826103cd565b9050602081019050919050565b82818337600083830152505050565b600061056b61056684610518565b6104fd565b90508281526020810184848401111561058757610586610498565b5b610592848285610549565b509392505050565b600082601f8301126105af576105ae610493565b5b81356105bf848260208601610558565b91505092915050565b600080600080608085870312156105e2576105e161030b565b5b600085013567ffffffffffffffff811115610600576105ff610310565b5b61060c8782880161059a565b945050602085013567ffffffffffffffff81111561062d5761062c610310565b5b6106398782880161059a565b935050604061064a87828801610336565b925050606061065b87828801610336565b91505092959194509250565b7f4e487b7100000000000000000000000000000000000000000000000000000000600052602260045260246000fd5b600060028204905060018216806106ae57607f821691505b6020821081036106c1576106c0610667565b5b50919050565b7f4e487b7100000000000000000000000000000000000000000000000000000000600052601160045260246000fd5b600061070182610315565b91507fffffffffffffffffffffffffffffffffffffffffffffffffffffffffffffffff8203610733576107326106c7565b5b600182019050919050565b60008190508160005260206000209050919050565b60006020601f8301049050919050565b600082821b905092915050565b6000600883026107a07fffffffffffffffffffffffffffffffffffffffffffffffffffffffffffffffff82610763565b6107aa8683610763565b95508019841693508086168417925050509392505050565b6000819050919050565b60006107e76107e26107dd84610315565b6107c2565b610315565b9050919050565b6000819050919050565b610801836107cc565b61081561080d826107ee565b848454610770565b825550505050565b600090565b61082a61081d565b6108358184846107f8565b505050565b5b818110156108595761084e600082610822565b60018101905061083b565b5050565b601f82111561089e5761086f8161073e565b61087884610753565b81016020851015610887578190505b61089b61089385610753565b83018261083a565b50505b505050565b600082821c905092915050565b60006108c1600019846008026108a3565b1980831691505092915050565b60006108da83836108b0565b9150826002028217905092915050565b6108f382610387565b67ffffffffffffffff81111561090c5761090b61049d565b5b6109168254610696565b61092182828561085d565b600060209050601f8311600181146109545760008415610942578287015190505b61094c85826108ce565b8655506109b4565b601f1984166109628661073e565b60005b8281101561098a57848901518255600182019150602085019450602081019050610965565b868310156109a757848901516109a3601f8916826108b0565b8355505b6001600288020188555050505b50505050505056fea2646970667358221220bb230c6b0f0f55be4bc8909036391b807e2f976bff5829af128a8fae36bbfd0264736f6c634300081c0033",
  "linkReferences": {},
  "deployedLinkReferences": {}
}